{
  "contractName": "OATToken",
  "abi": [
    {
      "inputs": [],
      "stateMutability": "nonpayable",
      "type": "constructor"
    },
    {
      "anonymous": false,
      "inputs": [
        {
          "indexed": true,
          "internalType": "address",
          "name": "owner",
          "type": "address"
        },
        {
          "indexed": true,
          "internalType": "address",
          "name": "spender",
          "type": "address"
        },
        {
          "indexed": false,
          "internalType": "uint256",
          "name": "value",
          "type": "uint256"
        }
      ],
      "name": "Approval",
      "type": "event"
    },
    {
      "anonymous": false,
      "inputs": [
        {
          "indexed": true,
          "internalType": "address",
          "name": "previousOwner",
          "type": "address"
        },
        {
          "indexed": true,
          "internalType": "address",
          "name": "newOwner",
          "type": "address"
        }
      ],
      "name": "OwnershipTransferred",
      "type": "event"
    },
    {
      "anonymous": false,
      "inputs": [
        {
          "indexed": false,
          "internalType": "address",
          "name": "account",
          "type": "address"
        }
      ],
      "name": "Paused",
      "type": "event"
    },
    {
      "anonymous": false,
      "inputs": [
        {
          "indexed": true,
          "internalType": "bytes32",
          "name": "role",
          "type": "bytes32"
        },
        {
          "indexed": true,
          "internalType": "bytes32",
          "name": "previousAdminRole",
          "type": "bytes32"
        },
        {
          "indexed": true,
          "internalType": "bytes32",
          "name": "newAdminRole",
          "type": "bytes32"
        }
      ],
      "name": "RoleAdminChanged",
      "type": "event"
    },
    {
      "anonymous": false,
      "inputs": [
        {
          "indexed": true,
          "internalType": "bytes32",
          "name": "role",
          "type": "bytes32"
        },
        {
          "indexed": true,
          "internalType": "address",
          "name": "account",
          "type": "address"
        },
        {
          "indexed": true,
          "internalType": "address",
          "name": "sender",
          "type": "address"
        }
      ],
      "name": "RoleGranted",
      "type": "event"
    },
    {
      "anonymous": false,
      "inputs": [
        {
          "indexed": true,
          "internalType": "bytes32",
          "name": "role",
          "type": "bytes32"
        },
        {
          "indexed": true,
          "internalType": "address",
          "name": "account",
          "type": "address"
        },
        {
          "indexed": true,
          "internalType": "address",
          "name": "sender",
          "type": "address"
        }
      ],
      "name": "RoleRevoked",
      "type": "event"
    },
    {
      "anonymous": false,
      "inputs": [
        {
          "indexed": true,
          "internalType": "address",
          "name": "from",
          "type": "address"
        },
        {
          "indexed": true,
          "internalType": "address",
          "name": "to",
          "type": "address"
        },
        {
          "indexed": false,
          "internalType": "uint256",
          "name": "value",
          "type": "uint256"
        }
      ],
      "name": "Transfer",
      "type": "event"
    },
    {
      "anonymous": false,
      "inputs": [
        {
          "indexed": false,
          "internalType": "address",
          "name": "account",
          "type": "address"
        }
      ],
      "name": "Unpaused",
      "type": "event"
    },
    {
      "inputs": [],
      "name": "DEFAULT_ADMIN_ROLE",
      "outputs": [
        {
          "internalType": "bytes32",
          "name": "",
          "type": "bytes32"
        }
      ],
      "stateMutability": "view",
      "type": "function"
    },
    {
      "inputs": [],
      "name": "MINTER_ROLE",
      "outputs": [
        {
          "internalType": "bytes32",
          "name": "",
          "type": "bytes32"
        }
      ],
      "stateMutability": "view",
      "type": "function"
    },
    {
      "inputs": [],
      "name": "PAUSER_ROLE",
      "outputs": [
        {
          "internalType": "bytes32",
          "name": "",
          "type": "bytes32"
        }
      ],
      "stateMutability": "view",
      "type": "function"
    },
    {
      "inputs": [],
      "name": "_decimals",
      "outputs": [
        {
          "internalType": "uint8",
          "name": "",
          "type": "uint8"
        }
      ],
      "stateMutability": "view",
      "type": "function"
    },
    {
      "inputs": [],
      "name": "_name",
      "outputs": [
        {
          "internalType": "string",
          "name": "",
          "type": "string"
        }
      ],
      "stateMutability": "view",
      "type": "function"
    },
    {
      "inputs": [],
      "name": "_symbol",
      "outputs": [
        {
          "internalType": "string",
          "name": "",
          "type": "string"
        }
      ],
      "stateMutability": "view",
      "type": "function"
    },
    {
      "inputs": [
        {
          "internalType": "address",
          "name": "owner",
          "type": "address"
        },
        {
          "internalType": "address",
          "name": "spender",
          "type": "address"
        }
      ],
      "name": "allowance",
      "outputs": [
        {
          "internalType": "uint256",
          "name": "",
          "type": "uint256"
        }
      ],
      "stateMutability": "view",
      "type": "function"
    },
    {
      "inputs": [
        {
          "internalType": "address",
          "name": "spender",
          "type": "address"
        },
        {
          "internalType": "uint256",
          "name": "amount",
          "type": "uint256"
        }
      ],
      "name": "approve",
      "outputs": [
        {
          "internalType": "bool",
          "name": "",
          "type": "bool"
        }
      ],
      "stateMutability": "nonpayable",
      "type": "function"
    },
    {
      "inputs": [
        {
          "internalType": "address",
          "name": "account",
          "type": "address"
        }
      ],
      "name": "balanceOf",
      "outputs": [
        {
          "internalType": "uint256",
          "name": "",
          "type": "uint256"
        }
      ],
      "stateMutability": "view",
      "type": "function"
    },
    {
      "inputs": [
        {
          "internalType": "uint256",
          "name": "amount",
          "type": "uint256"
        }
      ],
      "name": "burn",
      "outputs": [],
      "stateMutability": "nonpayable",
      "type": "function"
    },
    {
      "inputs": [
        {
          "internalType": "address",
          "name": "account",
          "type": "address"
        },
        {
          "internalType": "uint256",
          "name": "amount",
          "type": "uint256"
        }
      ],
      "name": "burnFrom",
      "outputs": [],
      "stateMutability": "nonpayable",
      "type": "function"
    },
    {
      "inputs": [],
      "name": "decimals",
      "outputs": [
        {
          "internalType": "uint8",
          "name": "",
          "type": "uint8"
        }
      ],
      "stateMutability": "view",
      "type": "function"
    },
    {
      "inputs": [
        {
          "internalType": "address",
          "name": "spender",
          "type": "address"
        },
        {
          "internalType": "uint256",
          "name": "subtractedValue",
          "type": "uint256"
        }
      ],
      "name": "decreaseAllowance",
      "outputs": [
        {
          "internalType": "bool",
          "name": "",
          "type": "bool"
        }
      ],
      "stateMutability": "nonpayable",
      "type": "function"
    },
    {
      "inputs": [
        {
          "internalType": "bytes32",
          "name": "role",
          "type": "bytes32"
        }
      ],
      "name": "getRoleAdmin",
      "outputs": [
        {
          "internalType": "bytes32",
          "name": "",
          "type": "bytes32"
        }
      ],
      "stateMutability": "view",
      "type": "function"
    },
    {
      "inputs": [
        {
          "internalType": "bytes32",
          "name": "role",
          "type": "bytes32"
        },
        {
          "internalType": "uint256",
          "name": "index",
          "type": "uint256"
        }
      ],
      "name": "getRoleMember",
      "outputs": [
        {
          "internalType": "address",
          "name": "",
          "type": "address"
        }
      ],
      "stateMutability": "view",
      "type": "function"
    },
    {
      "inputs": [
        {
          "internalType": "bytes32",
          "name": "role",
          "type": "bytes32"
        }
      ],
      "name": "getRoleMemberCount",
      "outputs": [
        {
          "internalType": "uint256",
          "name": "",
          "type": "uint256"
        }
      ],
      "stateMutability": "view",
      "type": "function"
    },
    {
      "inputs": [
        {
          "internalType": "bytes32",
          "name": "role",
          "type": "bytes32"
        },
        {
          "internalType": "address",
          "name": "account",
          "type": "address"
        }
      ],
      "name": "grantRole",
      "outputs": [],
      "stateMutability": "nonpayable",
      "type": "function"
    },
    {
      "inputs": [
        {
          "internalType": "bytes32",
          "name": "role",
          "type": "bytes32"
        },
        {
          "internalType": "address",
          "name": "account",
          "type": "address"
        }
      ],
      "name": "hasRole",
      "outputs": [
        {
          "internalType": "bool",
          "name": "",
          "type": "bool"
        }
      ],
      "stateMutability": "view",
      "type": "function"
    },
    {
      "inputs": [
        {
          "internalType": "address",
          "name": "spender",
          "type": "address"
        },
        {
          "internalType": "uint256",
          "name": "addedValue",
          "type": "uint256"
        }
      ],
      "name": "increaseAllowance",
      "outputs": [
        {
          "internalType": "bool",
          "name": "",
          "type": "bool"
        }
      ],
      "stateMutability": "nonpayable",
      "type": "function"
    },
    {
      "inputs": [
        {
          "internalType": "address",
          "name": "to",
          "type": "address"
        },
        {
          "internalType": "uint256",
          "name": "amount",
          "type": "uint256"
        }
      ],
      "name": "mint",
      "outputs": [],
      "stateMutability": "nonpayable",
      "type": "function"
    },
    {
      "inputs": [],
      "name": "name",
      "outputs": [
        {
          "internalType": "string",
          "name": "",
          "type": "string"
        }
      ],
      "stateMutability": "view",
      "type": "function"
    },
    {
      "inputs": [],
      "name": "owner",
      "outputs": [
        {
          "internalType": "address",
          "name": "",
          "type": "address"
        }
      ],
      "stateMutability": "view",
      "type": "function"
    },
    {
      "inputs": [],
      "name": "pause",
      "outputs": [],
      "stateMutability": "nonpayable",
      "type": "function"
    },
    {
      "inputs": [],
      "name": "paused",
      "outputs": [
        {
          "internalType": "bool",
          "name": "",
          "type": "bool"
        }
      ],
      "stateMutability": "view",
      "type": "function"
    },
    {
      "inputs": [
        {
          "internalType": "address",
          "name": "",
          "type": "address"
        }
      ],
      "name": "poolClaimed",
      "outputs": [
        {
          "internalType": "uint256",
          "name": "",
          "type": "uint256"
        }
      ],
      "stateMutability": "view",
      "type": "function"
    },
    {
      "inputs": [],
      "name": "renounceOwnership",
      "outputs": [],
      "stateMutability": "nonpayable",
      "type": "function"
    },
    {
      "inputs": [
        {
          "internalType": "bytes32",
          "name": "role",
          "type": "bytes32"
        },
        {
          "internalType": "address",
          "name": "account",
          "type": "address"
        }
      ],
      "name": "renounceRole",
      "outputs": [],
      "stateMutability": "nonpayable",
      "type": "function"
    },
    {
      "inputs": [
        {
          "internalType": "bytes32",
          "name": "role",
          "type": "bytes32"
        },
        {
          "internalType": "address",
          "name": "account",
          "type": "address"
        }
      ],
      "name": "revokeRole",
      "outputs": [],
      "stateMutability": "nonpayable",
      "type": "function"
    },
    {
      "inputs": [
        {
          "internalType": "bytes4",
          "name": "interfaceId",
          "type": "bytes4"
        }
      ],
      "name": "supportsInterface",
      "outputs": [
        {
          "internalType": "bool",
          "name": "",
          "type": "bool"
        }
      ],
      "stateMutability": "view",
      "type": "function"
    },
    {
      "inputs": [],
      "name": "symbol",
      "outputs": [
        {
          "internalType": "string",
          "name": "",
          "type": "string"
        }
      ],
      "stateMutability": "view",
      "type": "function"
    },
    {
      "inputs": [],
      "name": "tokenValueWEI",
      "outputs": [
        {
          "internalType": "uint256",
          "name": "",
          "type": "uint256"
        }
      ],
      "stateMutability": "view",
      "type": "function"
    },
    {
      "inputs": [],
      "name": "totalSupply",
      "outputs": [
        {
          "internalType": "uint256",
          "name": "",
          "type": "uint256"
        }
      ],
      "stateMutability": "view",
      "type": "function"
    },
    {
      "inputs": [
        {
          "internalType": "address",
          "name": "sender",
          "type": "address"
        },
        {
          "internalType": "address",
          "name": "recipient",
          "type": "address"
        },
        {
          "internalType": "uint256",
          "name": "amount",
          "type": "uint256"
        }
      ],
      "name": "transferFrom",
      "outputs": [
        {
          "internalType": "bool",
          "name": "",
          "type": "bool"
        }
      ],
      "stateMutability": "nonpayable",
      "type": "function"
    },
    {
      "inputs": [
        {
          "internalType": "address",
          "name": "newOwner",
          "type": "address"
        }
      ],
      "name": "transferOwnership",
      "outputs": [],
      "stateMutability": "nonpayable",
      "type": "function"
    },
    {
      "inputs": [],
      "name": "unpause",
      "outputs": [],
      "stateMutability": "nonpayable",
      "type": "function"
    },
    {
      "inputs": [],
      "name": "getBurnTenthPercent",
      "outputs": [
        {
          "internalType": "uint256",
          "name": "",
          "type": "uint256"
        }
      ],
      "stateMutability": "view",
      "type": "function"
    },
    {
      "inputs": [
        {
          "internalType": "uint256",
          "name": "burnTenthPercent",
          "type": "uint256"
        }
      ],
      "name": "setBurnTenthPercent",
      "outputs": [],
      "stateMutability": "nonpayable",
      "type": "function"
    },
    {
      "inputs": [],
      "name": "getReflectionTenthPercent",
      "outputs": [
        {
          "internalType": "uint256",
          "name": "",
          "type": "uint256"
        }
      ],
      "stateMutability": "view",
      "type": "function"
    },
    {
      "inputs": [
        {
          "internalType": "uint256",
          "name": "reflectionTenthPercent",
          "type": "uint256"
        }
      ],
      "name": "setReflectionTenthPercent",
      "outputs": [],
      "stateMutability": "nonpayable",
      "type": "function"
    },
    {
      "inputs": [],
      "name": "getPeriod",
      "outputs": [
        {
          "internalType": "uint256",
          "name": "",
          "type": "uint256"
        }
      ],
      "stateMutability": "view",
      "type": "function"
    },
    {
      "inputs": [
        {
          "internalType": "uint256",
          "name": "q",
          "type": "uint256"
        }
      ],
      "name": "setPeriod",
      "outputs": [],
      "stateMutability": "nonpayable",
      "type": "function"
    },
    {
      "inputs": [],
      "name": "getTotalReflection",
      "outputs": [
        {
          "internalType": "uint256",
          "name": "",
          "type": "uint256"
        }
      ],
      "stateMutability": "view",
      "type": "function"
    },
    {
      "inputs": [
        {
          "internalType": "address",
          "name": "a",
          "type": "address"
        }
      ],
      "name": "getUserReflection",
      "outputs": [
        {
          "internalType": "uint256",
          "name": "",
          "type": "uint256"
        }
      ],
      "stateMutability": "view",
      "type": "function"
    },
    {
      "inputs": [
        {
          "internalType": "uint256",
          "name": "amt",
          "type": "uint256"
        }
      ],
      "name": "claimAllReflection",
      "outputs": [],
      "stateMutability": "nonpayable",
      "type": "function"
    },
    {
      "inputs": [],
      "name": "claimReflection",
      "outputs": [],
      "stateMutability": "nonpayable",
      "type": "function"
    },
    {
      "inputs": [
        {
          "internalType": "uint256",
          "name": "price",
          "type": "uint256"
        }
      ],
      "name": "setTokenValue",
      "outputs": [],
      "stateMutability": "nonpayable",
      "type": "function"
    },
    {
      "inputs": [
        {
          "internalType": "uint256",
          "name": "_amt",
          "type": "uint256"
        }
      ],
      "name": "buy",
      "outputs": [],
      "stateMutability": "payable",
      "type": "function"
    },
    {
      "inputs": [
        {
          "internalType": "address",
          "name": "recipient",
          "type": "address"
        },
        {
          "internalType": "uint256",
          "name": "amount",
          "type": "uint256"
        }
      ],
      "name": "transfer",
      "outputs": [
        {
          "internalType": "bool",
          "name": "",
          "type": "bool"
        }
      ],
      "stateMutability": "nonpayable",
      "type": "function"
    }
  ],
  "bytecode": "0x60806040526040518060400160405280600981526020017f4f415420546f6b656e00000000000000000000000000000000000000000000008152506008908051906020019062000051929190620008ef565b506040518060400160405280600381526020017f4f41540000000000000000000000000000000000000000000000000000000000815250600990805190602001906200009f929190620008ef565b506009600a60006101000a81548160ff021916908360ff1602179055506005600b556005600c556001600d55348015620000d857600080fd5b5060088054620000e89062000cd0565b80601f0160208091040260200160405190810160405280929190818152602001828054620001169062000cd0565b8015620001675780601f106200013b5761010080835404028352916020019162000167565b820191906000526020600020905b8154815290600101906020018083116200014957829003601f168201915b5050505050600980546200017b9062000cd0565b80601f0160208091040260200160405190810160405280929190818152602001828054620001a99062000cd0565b8015620001fa5780601f10620001ce57610100808354040283529160200191620001fa565b820191906000526020600020905b815481529060010190602001808311620001dc57829003601f168201915b50505050508181816005908051906020019062000219929190620008ef565b50806006908051906020019062000232929190620008ef565b5050506000600760006101000a81548160ff021916908315150217905550620002746000801b620002686200036260201b60201c565b6200036a60201b60201c565b620002b57f9f2df0fed2c77648de5860a4cc508cd0818c85b8b8a1ab4ceeef8d981c8956a6620002a96200036260201b60201c565b6200036a60201b60201c565b620002f67f65d7a28e3265b37a6474929f336521b332c1681b933f6cb9f3376673440d862a620002ea6200036260201b60201c565b6200036a60201b60201c565b5050620003186200030c6200036260201b60201c565b620003b260201b60201c565b6200035c336200032d6200047860201b60201c565b60ff16600a6200033e919062000b28565b64e8d4a5100062000350919062000c65565b6200048160201b60201c565b62000de9565b600033905090565b620003818282620005fb60201b62001ccf1760201c565b620003ad81600160008581526020019081526020016000206200061160201b62001cdd1790919060201c565b505050565b6000600760019054906101000a900473ffffffffffffffffffffffffffffffffffffffff16905081600760016101000a81548173ffffffffffffffffffffffffffffffffffffffff021916908373ffffffffffffffffffffffffffffffffffffffff1602179055508173ffffffffffffffffffffffffffffffffffffffff168173ffffffffffffffffffffffffffffffffffffffff167f8be0079c531659141344cd1fd0a4f28419497f9722a3daafe3b4186f6b6457e060405160405180910390a35050565b60006012905090565b600073ffffffffffffffffffffffffffffffffffffffff168273ffffffffffffffffffffffffffffffffffffffff161415620004f4576040517f08c379a0000000000000000000000000000000000000000000000000000000008152600401620004eb90620009fe565b60405180910390fd5b62000508600083836200064960201b60201c565b80600460008282546200051c919062000a70565b9250508190555080600260008473ffffffffffffffffffffffffffffffffffffffff1673ffffffffffffffffffffffffffffffffffffffff168152602001908152602001600020600082825462000574919062000a70565b925050819055508173ffffffffffffffffffffffffffffffffffffffff16600073ffffffffffffffffffffffffffffffffffffffff167fddf252ad1be2c89b69c2b068fc378daa952ba7f163c4a11628f55a4df523b3ef83604051620005db919062000a42565b60405180910390a3620005f7600083836200066660201b60201c565b5050565b6200060d82826200066b60201b60201c565b5050565b600062000641836000018373ffffffffffffffffffffffffffffffffffffffff1660001b6200075c60201b60201c565b905092915050565b62000661838383620007d660201b62001d0d1760201c565b505050565b505050565b6200067d82826200084660201b60201c565b6200075857600160008084815260200190815260200160002060000160008373ffffffffffffffffffffffffffffffffffffffff1673ffffffffffffffffffffffffffffffffffffffff16815260200190815260200160002060006101000a81548160ff021916908315150217905550620006fd6200036260201b60201c565b73ffffffffffffffffffffffffffffffffffffffff168173ffffffffffffffffffffffffffffffffffffffff16837f2f8788117e7eff1d82e926ec794901d17c78024a50270940304540a733656f0d60405160405180910390a45b5050565b6000620007708383620008b060201b60201c565b620007cb578260000182908060018154018082558091505060019003906000526020600020016000909190919091505582600001805490508360010160008481526020019081526020016000208190555060019050620007d0565b600090505b92915050565b620007ee838383620008d360201b62001d651760201c565b620007fe620008d860201b60201c565b1562000841576040517f08c379a0000000000000000000000000000000000000000000000000000000008152600401620008389062000a20565b60405180910390fd5b505050565b600080600084815260200190815260200160002060000160008373ffffffffffffffffffffffffffffffffffffffff1673ffffffffffffffffffffffffffffffffffffffff16815260200190815260200160002060009054906101000a900460ff16905092915050565b600080836001016000848152602001908152602001600020541415905092915050565b505050565b6000600760009054906101000a900460ff16905090565b828054620008fd9062000cd0565b90600052602060002090601f0160209004810192826200092157600085556200096d565b82601f106200093c57805160ff19168380011785556200096d565b828001600101855582156200096d579182015b828111156200096c5782518255916020019190600101906200094f565b5b5090506200097c919062000980565b5090565b5b808211156200099b57600081600090555060010162000981565b5090565b6000620009ae601f8362000a5f565b9150620009bb8262000d71565b602082019050919050565b6000620009d5602a8362000a5f565b9150620009e28262000d9a565b604082019050919050565b620009f88162000cc6565b82525050565b6000602082019050818103600083015262000a19816200099f565b9050919050565b6000602082019050818103600083015262000a3b81620009c6565b9050919050565b600060208201905062000a596000830184620009ed565b92915050565b600082825260208201905092915050565b600062000a7d8262000cc6565b915062000a8a8362000cc6565b9250827fffffffffffffffffffffffffffffffffffffffffffffffffffffffffffffffff0382111562000ac25762000ac162000d06565b5b828201905092915050565b6000808291508390505b600185111562000b1f5780860481111562000af75762000af662000d06565b5b600185161562000b075780820291505b808102905062000b178562000d64565b945062000ad7565b94509492505050565b600062000b358262000cc6565b915062000b428362000cc6565b925062000b717fffffffffffffffffffffffffffffffffffffffffffffffffffffffffffffffff848462000b79565b905092915050565b60008262000b8b576001905062000c5e565b8162000b9b576000905062000c5e565b816001811462000bb4576002811462000bbf5762000bf5565b600191505062000c5e565b60ff84111562000bd45762000bd362000d06565b5b8360020a91508482111562000bee5762000bed62000d06565b5b5062000c5e565b5060208310610133831016604e8410600b841016171562000c2f5782820a90508381111562000c295762000c2862000d06565b5b62000c5e565b62000c3e848484600162000acd565b9250905081840481111562000c585762000c5762000d06565b5b81810290505b9392505050565b600062000c728262000cc6565b915062000c7f8362000cc6565b9250817fffffffffffffffffffffffffffffffffffffffffffffffffffffffffffffffff048311821515161562000cbb5762000cba62000d06565b5b828202905092915050565b6000819050919050565b6000600282049050600182168062000ce957607f821691505b6020821081141562000d005762000cff62000d35565b5b50919050565b7f4e487b7100000000000000000000000000000000000000000000000000000000600052601160045260246000fd5b7f4e487b7100000000000000000000000000000000000000000000000000000000600052602260045260246000fd5b60008160011c9050919050565b7f45524332303a206d696e7420746f20746865207a65726f206164647265737300600082015250565b7f45524332305061757361626c653a20746f6b656e207472616e7366657220776860008201527f696c652070617573656400000000000000000000000000000000000000000000602082015250565b61459d8062000df96000396000f3fe6080604052600436106102935760003560e01c806373a166f71161015a578063a9059cbb116100c1578063d6029d251161007a578063d6029d2514610a2c578063d96a094a14610a57578063dd62ed3e14610a73578063e63ab1e914610ab0578063f2fde38b14610adb578063fff88b1c14610b0457610293565b8063a9059cbb14610908578063b09f126614610945578063ca15c87314610970578063d28d8852146109ad578063d5391393146109d8578063d547741f14610a0357610293565b80639010d07c116101135780639010d07c146107d257806391d148541461080f57806395d89b411461084c578063a217fddf14610877578063a2bf6939146108a2578063a457c2d7146108cb57610293565b806373a166f7146106c257806374b4abdd146106ff57806379cc67901461072a5780637ea5c17a146107535780638456cb59146107905780638da5cb5b146107a757610293565b80633406bdbc116101fe57806340c10f19116101b757806340c10f19146105c857806342966c68146105f1578063495915b11461061a5780635c975abb1461064357806370a082311461066e578063715018a6146106ab57610293565b80633406bdbc146104de57806336568abe14610509578063375632931461053257806338799c6a1461054957806339509351146105745780633f4ba83a146105b157610293565b80631ed24195116102505780631ed24195146103ba57806323b872dd146103e5578063248a9ca3146104225780632f2ff15d1461045f578063313ce5671461048857806332424aa3146104b357610293565b806301ffc9a71461029857806306fdde03146102d5578063095ea7b3146103005780630f3a9f651461033d5780631277c1591461036657806318160ddd1461038f575b600080fd5b3480156102a457600080fd5b506102bf60048036038101906102ba919061332a565b610b2d565b6040516102cc91906137f1565b60405180910390f35b3480156102e157600080fd5b506102ea610ba7565b6040516102f79190613827565b60405180910390f35b34801561030c57600080fd5b506103276004803603810190610322919061324d565b610c39565b60405161033491906137f1565b60405180910390f35b34801561034957600080fd5b50610364600480360381019061035f9190613353565b610c57565b005b34801561037257600080fd5b5061038d60048036038101906103889190613353565b610cdd565b005b34801561039b57600080fd5b506103a4610d63565b6040516103b19190613b29565b60405180910390f35b3480156103c657600080fd5b506103cf610d6d565b6040516103dc9190613b29565b60405180910390f35b3480156103f157600080fd5b5061040c600480360381019061040791906131fe565b610d77565b60405161041991906137f1565b60405180910390f35b34801561042e57600080fd5b5061044960048036038101906104449190613289565b610e6f565b604051610456919061380c565b60405180910390f35b34801561046b57600080fd5b50610486600480360381019061048191906132b2565b610e8e565b005b34801561049457600080fd5b5061049d610ec2565b6040516104aa9190613b44565b60405180910390f35b3480156104bf57600080fd5b506104c8610ecb565b6040516104d59190613b44565b60405180910390f35b3480156104ea57600080fd5b506104f3610ede565b6040516105009190613b29565b60405180910390f35b34801561051557600080fd5b50610530600480360381019061052b91906132b2565b610ee8565b005b34801561053e57600080fd5b50610547610f1c565b005b34801561055557600080fd5b5061055e610fcd565b60405161056b9190613b29565b60405180910390f35b34801561058057600080fd5b5061059b6004803603810190610596919061324d565b610fd3565b6040516105a891906137f1565b60405180910390f35b3480156105bd57600080fd5b506105c661107f565b005b3480156105d457600080fd5b506105ef60048036038101906105ea919061324d565b6110f9565b005b3480156105fd57600080fd5b5061061860048036038101906106139190613353565b611177565b005b34801561062657600080fd5b50610641600480360381019061063c9190613353565b61118b565b005b34801561064f57600080fd5b5061065861121d565b60405161066591906137f1565b60405180910390f35b34801561067a57600080fd5b5061069560048036038101906106909190613199565b611234565b6040516106a29190613b29565b60405180910390f35b3480156106b757600080fd5b506106c061127d565b005b3480156106ce57600080fd5b506106e960048036038101906106e49190613199565b611305565b6040516106f69190613b29565b60405180910390f35b34801561070b57600080fd5b5061071461138e565b6040516107219190613b29565b60405180910390f35b34801561073657600080fd5b50610751600480360381019061074c919061324d565b611398565b005b34801561075f57600080fd5b5061077a60048036038101906107759190613199565b611413565b6040516107879190613b29565b60405180910390f35b34801561079c57600080fd5b506107a561142b565b005b3480156107b357600080fd5b506107bc6114a5565b6040516107c991906137d6565b60405180910390f35b3480156107de57600080fd5b506107f960048036038101906107f491906132ee565b6114cf565b60405161080691906137d6565b60405180910390f35b34801561081b57600080fd5b50610836600480360381019061083191906132b2565b6114fe565b60405161084391906137f1565b60405180910390f35b34801561085857600080fd5b50610861611568565b60405161086e9190613827565b60405180910390f35b34801561088357600080fd5b5061088c6115fa565b604051610899919061380c565b60405180910390f35b3480156108ae57600080fd5b506108c960048036038101906108c49190613353565b611601565b005b3480156108d757600080fd5b506108f260048036038101906108ed919061324d565b611687565b6040516108ff91906137f1565b60405180910390f35b34801561091457600080fd5b5061092f600480360381019061092a919061324d565b611772565b60405161093c91906137f1565b60405180910390f35b34801561095157600080fd5b5061095a61189b565b6040516109679190613827565b60405180910390f35b34801561097c57600080fd5b5061099760048036038101906109929190613289565b611929565b6040516109a49190613b29565b60405180910390f35b3480156109b957600080fd5b506109c261194d565b6040516109cf9190613827565b60405180910390f35b3480156109e457600080fd5b506109ed6119db565b6040516109fa919061380c565b60405180910390f35b348015610a0f57600080fd5b50610a2a6004803603810190610a2591906132b2565b6119ff565b005b348015610a3857600080fd5b50610a41611a33565b604051610a4e9190613b29565b60405180910390f35b610a716004803603810190610a6c9190613353565b611a43565b005b348015610a7f57600080fd5b50610a9a6004803603810190610a9591906131c2565b611aa6565b604051610aa79190613b29565b60405180910390f35b348015610abc57600080fd5b50610ac5611b2d565b604051610ad2919061380c565b60405180910390f35b348015610ae757600080fd5b50610b026004803603810190610afd9190613199565b611b51565b005b348015610b1057600080fd5b50610b2b6004803603810190610b269190613353565b611c49565b005b60007f5a05180f000000000000000000000000000000000000000000000000000000007bffffffffffffffffffffffffffffffffffffffffffffffffffffffff1916827bffffffffffffffffffffffffffffffffffffffffffffffffffffffff19161480610ba05750610b9f82611d6a565b5b9050919050565b606060058054610bb690613d83565b80601f0160208091040260200160405190810160405280929190818152602001828054610be290613d83565b8015610c2f5780601f10610c0457610100808354040283529160200191610c2f565b820191906000526020600020905b815481529060010190602001808311610c1257829003601f168201915b5050505050905090565b6000610c4d610c46611de4565b8484611dec565b6001905092915050565b610c5f611de4565b73ffffffffffffffffffffffffffffffffffffffff16610c7d6114a5565b73ffffffffffffffffffffffffffffffffffffffff1614610cd3576040517f08c379a0000000000000000000000000000000000000000000000000000000008152600401610cca906139c9565b60405180910390fd5b80600d8190555050565b610ce5611de4565b73ffffffffffffffffffffffffffffffffffffffff16610d036114a5565b73ffffffffffffffffffffffffffffffffffffffff1614610d59576040517f08c379a0000000000000000000000000000000000000000000000000000000008152600401610d50906139c9565b60405180910390fd5b80600c8190555050565b6000600454905090565b6000600d54905090565b6000610d84848484611fb7565b6000600360008673ffffffffffffffffffffffffffffffffffffffff1673ffffffffffffffffffffffffffffffffffffffff1681526020019081526020016000206000610dcf611de4565b73ffffffffffffffffffffffffffffffffffffffff1673ffffffffffffffffffffffffffffffffffffffff16815260200190815260200160002054905082811015610e4f576040517f08c379a0000000000000000000000000000000000000000000000000000000008152600401610e46906139a9565b60405180910390fd5b610e6385610e5b611de4565b858403611dec565b60019150509392505050565b6000806000838152602001908152602001600020600101549050919050565b610e98828261223b565b610ebd8160016000858152602001908152602001600020611cdd90919063ffffffff16565b505050565b60006012905090565b600a60009054906101000a900460ff1681565b6000600c54905090565b610ef28282612264565b610f1781600160008581526020019081526020016000206122e790919063ffffffff16565b505050565b6000610f26611de4565b90506000610f3382611305565b905060008111610f78576040517f08c379a0000000000000000000000000000000000000000000000000000000008152600401610f6f90613989565b60405180910390fd5b610f83308383611fb7565b600d54600e60008473ffffffffffffffffffffffffffffffffffffffff1673ffffffffffffffffffffffffffffffffffffffff168152602001908152602001600020819055505050565b600f5481565b6000611075610fe0611de4565b848460036000610fee611de4565b73ffffffffffffffffffffffffffffffffffffffff1673ffffffffffffffffffffffffffffffffffffffff16815260200190815260200160002060008873ffffffffffffffffffffffffffffffffffffffff1673ffffffffffffffffffffffffffffffffffffffff168152602001908152602001600020546110709190613b86565b611dec565b6001905092915050565b6110b07f65d7a28e3265b37a6474929f336521b332c1681b933f6cb9f3376673440d862a6110ab611de4565b6114fe565b6110ef576040517f08c379a00000000000000000000000000000000000000000000000000000000081526004016110e6906138c9565b60405180910390fd5b6110f7612317565b565b61112a7f9f2df0fed2c77648de5860a4cc508cd0818c85b8b8a1ab4ceeef8d981c8956a6611125611de4565b6114fe565b611169576040517f08c379a0000000000000000000000000000000000000000000000000000000008152600401611160906139e9565b60405180910390fd5b61117382826123b9565b5050565b611188611182611de4565b8261251a565b50565b611193611de4565b73ffffffffffffffffffffffffffffffffffffffff166111b16114a5565b73ffffffffffffffffffffffffffffffffffffffff1614611207576040517f08c379a00000000000000000000000000000000000000000000000000000000081526004016111fe906139c9565b60405180910390fd5b611219306112136114a5565b83610d77565b5050565b6000600760009054906101000a900460ff16905090565b6000600260008373ffffffffffffffffffffffffffffffffffffffff1673ffffffffffffffffffffffffffffffffffffffff168152602001908152602001600020549050919050565b611285611de4565b73ffffffffffffffffffffffffffffffffffffffff166112a36114a5565b73ffffffffffffffffffffffffffffffffffffffff16146112f9576040517f08c379a00000000000000000000000000000000000000000000000000000000081526004016112f0906139c9565b60405180910390fd5b61130360006126f3565b565b6000600d54600e60008473ffffffffffffffffffffffffffffffffffffffff1673ffffffffffffffffffffffffffffffffffffffff1681526020019081526020016000205414156113595760009050611389565b611361610d63565b611369611a33565b61137284611234565b61137c9190613c0d565b6113869190613bdc565b90505b919050565b6000600b54905090565b60006113ab836113a6611de4565b611aa6565b9050818110156113f0576040517f08c379a00000000000000000000000000000000000000000000000000000000081526004016113e790613a09565b60405180910390fd5b611404836113fc611de4565b848403611dec565b61140e838361251a565b505050565b600e6020528060005260406000206000915090505481565b61145c7f65d7a28e3265b37a6474929f336521b332c1681b933f6cb9f3376673440d862a611457611de4565b6114fe565b61149b576040517f08c379a000000000000000000000000000000000000000000000000000000000815260040161149290613a89565b60405180910390fd5b6114a36127b9565b565b6000600760019054906101000a900473ffffffffffffffffffffffffffffffffffffffff16905090565b60006114f6826001600086815260200190815260200160002061285c90919063ffffffff16565b905092915050565b600080600084815260200190815260200160002060000160008373ffffffffffffffffffffffffffffffffffffffff1673ffffffffffffffffffffffffffffffffffffffff16815260200190815260200160002060009054906101000a900460ff16905092915050565b60606006805461157790613d83565b80601f01602080910402602001604051908101604052809291908181526020018280546115a390613d83565b80156115f05780601f106115c5576101008083540402835291602001916115f0565b820191906000526020600020905b8154815290600101906020018083116115d357829003601f168201915b5050505050905090565b6000801b81565b611609611de4565b73ffffffffffffffffffffffffffffffffffffffff166116276114a5565b73ffffffffffffffffffffffffffffffffffffffff161461167d576040517f08c379a0000000000000000000000000000000000000000000000000000000008152600401611674906139c9565b60405180910390fd5b80600f8190555050565b60008060036000611696611de4565b73ffffffffffffffffffffffffffffffffffffffff1673ffffffffffffffffffffffffffffffffffffffff16815260200190815260200160002060008573ffffffffffffffffffffffffffffffffffffffff1673ffffffffffffffffffffffffffffffffffffffff16815260200190815260200160002054905082811015611753576040517f08c379a000000000000000000000000000000000000000000000000000000000815260040161174a90613aa9565b60405180910390fd5b61176761175e611de4565b85858403611dec565b600191505092915050565b600081611785611780611de4565b611234565b10156117c6576040517f08c379a00000000000000000000000000000000000000000000000000000000081526004016117bd90613949565b60405180910390fd5b6000806117d1611de4565b73ffffffffffffffffffffffffffffffffffffffff166117ef6114a5565b73ffffffffffffffffffffffffffffffffffffffff161415801561182257506000600c54118061182157506000600b54115b5b1561186757611837600c5485026103e8612876565b915061184282611177565b611852600b5485026103e8612876565b905061186661185f611de4565b3083611fb7565b5b61188f611872611de4565b868385886118809190613c67565b61188a9190613c67565b611fb7565b60019250505092915050565b600980546118a890613d83565b80601f01602080910402602001604051908101604052809291908181526020018280546118d490613d83565b80156119215780601f106118f657610100808354040283529160200191611921565b820191906000526020600020905b81548152906001019060200180831161190457829003601f168201915b505050505081565b6000611946600160008481526020019081526020016000206128b5565b9050919050565b6008805461195a90613d83565b80601f016020809104026020016040519081016040528092919081815260200182805461198690613d83565b80156119d35780601f106119a8576101008083540402835291602001916119d3565b820191906000526020600020905b8154815290600101906020018083116119b657829003601f168201915b505050505081565b7f9f2df0fed2c77648de5860a4cc508cd0818c85b8b8a1ab4ceeef8d981c8956a681565b611a0982826128ca565b611a2e81600160008581526020019081526020016000206122e790919063ffffffff16565b505050565b6000611a3e30611234565b905090565b6000600f5482611a539190613c0d565b9050803411611a97576040517f08c379a0000000000000000000000000000000000000000000000000000000008152600401611a8e90613929565b60405180910390fd5b611aa13383611772565b505050565b6000600360008473ffffffffffffffffffffffffffffffffffffffff1673ffffffffffffffffffffffffffffffffffffffff16815260200190815260200160002060008373ffffffffffffffffffffffffffffffffffffffff1673ffffffffffffffffffffffffffffffffffffffff16815260200190815260200160002054905092915050565b7f65d7a28e3265b37a6474929f336521b332c1681b933f6cb9f3376673440d862a81565b611b59611de4565b73ffffffffffffffffffffffffffffffffffffffff16611b776114a5565b73ffffffffffffffffffffffffffffffffffffffff1614611bcd576040517f08c379a0000000000000000000000000000000000000000000000000000000008152600401611bc4906139c9565b60405180910390fd5b600073ffffffffffffffffffffffffffffffffffffffff168173ffffffffffffffffffffffffffffffffffffffff161415611c3d576040517f08c379a0000000000000000000000000000000000000000000000000000000008152600401611c34906138e9565b60405180910390fd5b611c46816126f3565b50565b611c51611de4565b73ffffffffffffffffffffffffffffffffffffffff16611c6f6114a5565b73ffffffffffffffffffffffffffffffffffffffff1614611cc5576040517f08c379a0000000000000000000000000000000000000000000000000000000008152600401611cbc906139c9565b60405180910390fd5b80600b8190555050565b611cd982826128f3565b5050565b6000611d05836000018373ffffffffffffffffffffffffffffffffffffffff1660001b6129d3565b905092915050565b611d18838383611d65565b611d2061121d565b15611d60576040517f08c379a0000000000000000000000000000000000000000000000000000000008152600401611d5790613b09565b60405180910390fd5b505050565b505050565b60007f7965db0b000000000000000000000000000000000000000000000000000000007bffffffffffffffffffffffffffffffffffffffffffffffffffffffff1916827bffffffffffffffffffffffffffffffffffffffffffffffffffffffff19161480611ddd5750611ddc82612a43565b5b9050919050565b600033905090565b600073ffffffffffffffffffffffffffffffffffffffff168373ffffffffffffffffffffffffffffffffffffffff161415611e5c576040517f08c379a0000000000000000000000000000000000000000000000000000000008152600401611e5390613a69565b60405180910390fd5b600073ffffffffffffffffffffffffffffffffffffffff168273ffffffffffffffffffffffffffffffffffffffff161415611ecc576040517f08c379a0000000000000000000000000000000000000000000000000000000008152600401611ec390613909565b60405180910390fd5b80600360008573ffffffffffffffffffffffffffffffffffffffff1673ffffffffffffffffffffffffffffffffffffffff16815260200190815260200160002060008473ffffffffffffffffffffffffffffffffffffffff1673ffffffffffffffffffffffffffffffffffffffff168152602001908152602001600020819055508173ffffffffffffffffffffffffffffffffffffffff168373ffffffffffffffffffffffffffffffffffffffff167f8c5be1e5ebec7d5bd14f71427d1e84f3dd0314c0f7b2291e5b200ac8c7c3b92583604051611faa9190613b29565b60405180910390a3505050565b600073ffffffffffffffffffffffffffffffffffffffff168373ffffffffffffffffffffffffffffffffffffffff161415612027576040517f08c379a000000000000000000000000000000000000000000000000000000000815260040161201e90613a49565b60405180910390fd5b600073ffffffffffffffffffffffffffffffffffffffff168273ffffffffffffffffffffffffffffffffffffffff161415612097576040517f08c379a000000000000000000000000000000000000000000000000000000000815260040161208e90613869565b60405180910390fd5b6120a2838383612aad565b6000600260008573ffffffffffffffffffffffffffffffffffffffff1673ffffffffffffffffffffffffffffffffffffffff16815260200190815260200160002054905081811015612129576040517f08c379a000000000000000000000000000000000000000000000000000000000815260040161212090613949565b60405180910390fd5b818103600260008673ffffffffffffffffffffffffffffffffffffffff1673ffffffffffffffffffffffffffffffffffffffff1681526020019081526020016000208190555081600260008573ffffffffffffffffffffffffffffffffffffffff1673ffffffffffffffffffffffffffffffffffffffff16815260200190815260200160002060008282546121be9190613b86565b925050819055508273ffffffffffffffffffffffffffffffffffffffff168473ffffffffffffffffffffffffffffffffffffffff167fddf252ad1be2c89b69c2b068fc378daa952ba7f163c4a11628f55a4df523b3ef846040516122229190613b29565b60405180910390a3612235848484612abd565b50505050565b61224482610e6f565b61225581612250611de4565b612ac2565b61225f83836128f3565b505050565b61226c611de4565b73ffffffffffffffffffffffffffffffffffffffff168173ffffffffffffffffffffffffffffffffffffffff16146122d9576040517f08c379a00000000000000000000000000000000000000000000000000000000081526004016122d090613ac9565b60405180910390fd5b6122e38282612b5f565b5050565b600061230f836000018373ffffffffffffffffffffffffffffffffffffffff1660001b612c40565b905092915050565b61231f61121d565b61235e576040517f08c379a000000000000000000000000000000000000000000000000000000000815260040161235590613889565b60405180910390fd5b6000600760006101000a81548160ff0219169083151502179055507f5db9ee0a495bf2e6ff9c91a7834c1ba4fdd244a5e8aa4e537bd38aeae4b073aa6123a2611de4565b6040516123af91906137d6565b60405180910390a1565b600073ffffffffffffffffffffffffffffffffffffffff168273ffffffffffffffffffffffffffffffffffffffff161415612429576040517f08c379a000000000000000000000000000000000000000000000000000000000815260040161242090613ae9565b60405180910390fd5b61243560008383612aad565b80600460008282546124479190613b86565b9250508190555080600260008473ffffffffffffffffffffffffffffffffffffffff1673ffffffffffffffffffffffffffffffffffffffff168152602001908152602001600020600082825461249d9190613b86565b925050819055508173ffffffffffffffffffffffffffffffffffffffff16600073ffffffffffffffffffffffffffffffffffffffff167fddf252ad1be2c89b69c2b068fc378daa952ba7f163c4a11628f55a4df523b3ef836040516125029190613b29565b60405180910390a361251660008383612abd565b5050565b600073ffffffffffffffffffffffffffffffffffffffff168273ffffffffffffffffffffffffffffffffffffffff16141561258a576040517f08c379a000000000000000000000000000000000000000000000000000000000815260040161258190613a29565b60405180910390fd5b61259682600083612aad565b6000600260008473ffffffffffffffffffffffffffffffffffffffff1673ffffffffffffffffffffffffffffffffffffffff1681526020019081526020016000205490508181101561261d576040517f08c379a0000000000000000000000000000000000000000000000000000000008152600401612614906138a9565b60405180910390fd5b818103600260008573ffffffffffffffffffffffffffffffffffffffff1673ffffffffffffffffffffffffffffffffffffffff1681526020019081526020016000208190555081600460008282546126759190613c67565b92505081905550600073ffffffffffffffffffffffffffffffffffffffff168373ffffffffffffffffffffffffffffffffffffffff167fddf252ad1be2c89b69c2b068fc378daa952ba7f163c4a11628f55a4df523b3ef846040516126da9190613b29565b60405180910390a36126ee83600084612abd565b505050565b6000600760019054906101000a900473ffffffffffffffffffffffffffffffffffffffff16905081600760016101000a81548173ffffffffffffffffffffffffffffffffffffffff021916908373ffffffffffffffffffffffffffffffffffffffff1602179055508173ffffffffffffffffffffffffffffffffffffffff168173ffffffffffffffffffffffffffffffffffffffff167f8be0079c531659141344cd1fd0a4f28419497f9722a3daafe3b4186f6b6457e060405160405180910390a35050565b6127c161121d565b15612801576040517f08c379a00000000000000000000000000000000000000000000000000000000081526004016127f890613969565b60405180910390fd5b6001600760006101000a81548160ff0219169083151502179055507f62e78cea01bee320cd4e420270b5ea74000d11b0c9f74754ebdbfc544b05a258612845611de4565b60405161285291906137d6565b60405180910390a1565b600061286b8360000183612dc6565b60001c905092915050565b60008082846128859190613db5565b14612891576001612894565b60005b60ff1682846128a39190613bdc565b6128ad9190613b86565b905092915050565b60006128c382600001612e17565b9050919050565b6128d382610e6f565b6128e4816128df611de4565b612ac2565b6128ee8383612b5f565b505050565b6128fd82826114fe565b6129cf57600160008084815260200190815260200160002060000160008373ffffffffffffffffffffffffffffffffffffffff1673ffffffffffffffffffffffffffffffffffffffff16815260200190815260200160002060006101000a81548160ff021916908315150217905550612974611de4565b73ffffffffffffffffffffffffffffffffffffffff168173ffffffffffffffffffffffffffffffffffffffff16837f2f8788117e7eff1d82e926ec794901d17c78024a50270940304540a733656f0d60405160405180910390a45b5050565b60006129df8383612e28565b612a38578260000182908060018154018082558091505060019003906000526020600020016000909190919091505582600001805490508360010160008481526020019081526020016000208190555060019050612a3d565b600090505b92915050565b60007f01ffc9a7000000000000000000000000000000000000000000000000000000007bffffffffffffffffffffffffffffffffffffffffffffffffffffffff1916827bffffffffffffffffffffffffffffffffffffffffffffffffffffffff1916149050919050565b612ab8838383611d0d565b505050565b505050565b612acc82826114fe565b612b5b57612af18173ffffffffffffffffffffffffffffffffffffffff166014612e4b565b612aff8360001c6020612e4b565b604051602001612b1092919061379c565b6040516020818303038152906040526040517f08c379a0000000000000000000000000000000000000000000000000000000008152600401612b529190613827565b60405180910390fd5b5050565b612b6982826114fe565b15612c3c57600080600084815260200190815260200160002060000160008373ffffffffffffffffffffffffffffffffffffffff1673ffffffffffffffffffffffffffffffffffffffff16815260200190815260200160002060006101000a81548160ff021916908315150217905550612be1611de4565b73ffffffffffffffffffffffffffffffffffffffff168173ffffffffffffffffffffffffffffffffffffffff16837ff6391f5c32d9c69d2a47ea670b442974b53935d1edc7fd64eb21e047a839171b60405160405180910390a45b5050565b60008083600101600084815260200190815260200160002054905060008114612dba576000600182612c729190613c67565b9050600060018660000180549050612c8a9190613c67565b9050818114612d45576000866000018281548110612cd1577f4e487b7100000000000000000000000000000000000000000000000000000000600052603260045260246000fd5b9060005260206000200154905080876000018481548110612d1b577f4e487b7100000000000000000000000000000000000000000000000000000000600052603260045260246000fd5b90600052602060002001819055508387600101600083815260200190815260200160002081905550505b85600001805480612d7f577f4e487b7100000000000000000000000000000000000000000000000000000000600052603160045260246000fd5b600190038181906000526020600020016000905590558560010160008681526020019081526020016000206000905560019350505050612dc0565b60009150505b92915050565b6000826000018281548110612e04577f4e487b7100000000000000000000000000000000000000000000000000000000600052603260045260246000fd5b9060005260206000200154905092915050565b600081600001805490509050919050565b600080836001016000848152602001908152602001600020541415905092915050565b606060006002836002612e5e9190613c0d565b612e689190613b86565b67ffffffffffffffff811115612ea7577f4e487b7100000000000000000000000000000000000000000000000000000000600052604160045260246000fd5b6040519080825280601f01601f191660200182016040528015612ed95781602001600182028036833780820191505090505b5090507f300000000000000000000000000000000000000000000000000000000000000081600081518110612f37577f4e487b7100000000000000000000000000000000000000000000000000000000600052603260045260246000fd5b60200101907effffffffffffffffffffffffffffffffffffffffffffffffffffffffffffff1916908160001a9053507f780000000000000000000000000000000000000000000000000000000000000081600181518110612fc1577f4e487b7100000000000000000000000000000000000000000000000000000000600052603260045260246000fd5b60200101907effffffffffffffffffffffffffffffffffffffffffffffffffffffffffffff1916908160001a905350600060018460026130019190613c0d565b61300b9190613b86565b90505b60018111156130f7577f3031323334353637383961626364656600000000000000000000000000000000600f861660108110613073577f4e487b7100000000000000000000000000000000000000000000000000000000600052603260045260246000fd5b1a60f81b8282815181106130b0577f4e487b7100000000000000000000000000000000000000000000000000000000600052603260045260246000fd5b60200101907effffffffffffffffffffffffffffffffffffffffffffffffffffffffffffff1916908160001a905350600485901c9450806130f090613d59565b905061300e565b506000841461313b576040517f08c379a000000000000000000000000000000000000000000000000000000000815260040161313290613849565b60405180910390fd5b8091505092915050565b6000813590506131548161450b565b92915050565b60008135905061316981614522565b92915050565b60008135905061317e81614539565b92915050565b60008135905061319381614550565b92915050565b6000602082840312156131ab57600080fd5b60006131b984828501613145565b91505092915050565b600080604083850312156131d557600080fd5b60006131e385828601613145565b92505060206131f485828601613145565b9150509250929050565b60008060006060848603121561321357600080fd5b600061322186828701613145565b935050602061323286828701613145565b925050604061324386828701613184565b9150509250925092565b6000806040838503121561326057600080fd5b600061326e85828601613145565b925050602061327f85828601613184565b9150509250929050565b60006020828403121561329b57600080fd5b60006132a98482850161315a565b91505092915050565b600080604083850312156132c557600080fd5b60006132d38582860161315a565b92505060206132e485828601613145565b9150509250929050565b6000806040838503121561330157600080fd5b600061330f8582860161315a565b925050602061332085828601613184565b9150509250929050565b60006020828403121561333c57600080fd5b600061334a8482850161316f565b91505092915050565b60006020828403121561336557600080fd5b600061337384828501613184565b91505092915050565b61338581613c9b565b82525050565b61339481613cad565b82525050565b6133a381613cb9565b82525050565b60006133b482613b5f565b6133be8185613b6a565b93506133ce818560208601613d26565b6133d781613e73565b840191505092915050565b60006133ed82613b5f565b6133f78185613b7b565b9350613407818560208601613d26565b80840191505092915050565b6000613420602083613b6a565b915061342b82613e84565b602082019050919050565b6000613443602383613b6a565b915061344e82613ead565b604082019050919050565b6000613466601483613b6a565b915061347182613efc565b602082019050919050565b6000613489602283613b6a565b915061349482613f25565b604082019050919050565b60006134ac603983613b6a565b91506134b782613f74565b604082019050919050565b60006134cf602683613b6a565b91506134da82613fc3565b604082019050919050565b60006134f2602283613b6a565b91506134fd82614012565b604082019050919050565b6000613515600b83613b6a565b915061352082614061565b602082019050919050565b6000613538602683613b6a565b91506135438261408a565b604082019050919050565b600061355b601083613b6a565b9150613566826140d9565b602082019050919050565b600061357e602583613b6a565b915061358982614102565b604082019050919050565b60006135a1602883613b6a565b91506135ac82614151565b604082019050919050565b60006135c4602083613b6a565b91506135cf826141a0565b602082019050919050565b60006135e7603683613b6a565b91506135f2826141c9565b604082019050919050565b600061360a602483613b6a565b915061361582614218565b604082019050919050565b600061362d602183613b6a565b915061363882614267565b604082019050919050565b6000613650602583613b6a565b915061365b826142b6565b604082019050919050565b6000613673602483613b6a565b915061367e82614305565b604082019050919050565b6000613696603783613b6a565b91506136a182614354565b604082019050919050565b60006136b9601783613b7b565b91506136c4826143a3565b601782019050919050565b60006136dc602583613b6a565b91506136e7826143cc565b604082019050919050565b60006136ff601183613b7b565b915061370a8261441b565b601182019050919050565b6000613722602f83613b6a565b915061372d82614444565b604082019050919050565b6000613745601f83613b6a565b915061375082614493565b602082019050919050565b6000613768602a83613b6a565b9150613773826144bc565b604082019050919050565b61378781613d0f565b82525050565b61379681613d19565b82525050565b60006137a7826136ac565b91506137b382856133e2565b91506137be826136f2565b91506137ca82846133e2565b91508190509392505050565b60006020820190506137eb600083018461337c565b92915050565b6000602082019050613806600083018461338b565b92915050565b6000602082019050613821600083018461339a565b92915050565b6000602082019050818103600083015261384181846133a9565b905092915050565b6000602082019050818103600083015261386281613413565b9050919050565b6000602082019050818103600083015261388281613436565b9050919050565b600060208201905081810360008301526138a281613459565b9050919050565b600060208201905081810360008301526138c28161347c565b9050919050565b600060208201905081810360008301526138e28161349f565b9050919050565b60006020820190508181036000830152613902816134c2565b9050919050565b60006020820190508181036000830152613922816134e5565b9050919050565b6000602082019050818103600083015261394281613508565b9050919050565b600060208201905081810360008301526139628161352b565b9050919050565b600060208201905081810360008301526139828161354e565b9050919050565b600060208201905081810360008301526139a281613571565b9050919050565b600060208201905081810360008301526139c281613594565b9050919050565b600060208201905081810360008301526139e2816135b7565b9050919050565b60006020820190508181036000830152613a02816135da565b9050919050565b60006020820190508181036000830152613a22816135fd565b9050919050565b60006020820190508181036000830152613a4281613620565b9050919050565b60006020820190508181036000830152613a6281613643565b9050919050565b60006020820190508181036000830152613a8281613666565b9050919050565b60006020820190508181036000830152613aa281613689565b9050919050565b60006020820190508181036000830152613ac2816136cf565b9050919050565b60006020820190508181036000830152613ae281613715565b9050919050565b60006020820190508181036000830152613b0281613738565b9050919050565b60006020820190508181036000830152613b228161375b565b9050919050565b6000602082019050613b3e600083018461377e565b92915050565b6000602082019050613b59600083018461378d565b92915050565b600081519050919050565b600082825260208201905092915050565b600081905092915050565b6000613b9182613d0f565b9150613b9c83613d0f565b9250827fffffffffffffffffffffffffffffffffffffffffffffffffffffffffffffffff03821115613bd157613bd0613de6565b5b828201905092915050565b6000613be782613d0f565b9150613bf283613d0f565b925082613c0257613c01613e15565b5b828204905092915050565b6000613c1882613d0f565b9150613c2383613d0f565b9250817fffffffffffffffffffffffffffffffffffffffffffffffffffffffffffffffff0483118215151615613c5c57613c5b613de6565b5b828202905092915050565b6000613c7282613d0f565b9150613c7d83613d0f565b925082821015613c9057613c8f613de6565b5b828203905092915050565b6000613ca682613cef565b9050919050565b60008115159050919050565b6000819050919050565b60007fffffffff0000000000000000000000000000000000000000000000000000000082169050919050565b600073ffffffffffffffffffffffffffffffffffffffff82169050919050565b6000819050919050565b600060ff82169050919050565b60005b83811015613d44578082015181840152602081019050613d29565b83811115613d53576000848401525b50505050565b6000613d6482613d0f565b91506000821415613d7857613d77613de6565b5b600182039050919050565b60006002820490506001821680613d9b57607f821691505b60208210811415613daf57613dae613e44565b5b50919050565b6000613dc082613d0f565b9150613dcb83613d0f565b925082613ddb57613dda613e15565b5b828206905092915050565b7f4e487b7100000000000000000000000000000000000000000000000000000000600052601160045260246000fd5b7f4e487b7100000000000000000000000000000000000000000000000000000000600052601260045260246000fd5b7f4e487b7100000000000000000000000000000000000000000000000000000000600052602260045260246000fd5b6000601f19601f8301169050919050565b7f537472696e67733a20686578206c656e67746820696e73756666696369656e74600082015250565b7f45524332303a207472616e7366657220746f20746865207a65726f206164647260008201527f6573730000000000000000000000000000000000000000000000000000000000602082015250565b7f5061757361626c653a206e6f7420706175736564000000000000000000000000600082015250565b7f45524332303a206275726e20616d6f756e7420657863656564732062616c616e60008201527f6365000000000000000000000000000000000000000000000000000000000000602082015250565b7f45524332305072657365744d696e7465725061757365723a206d75737420686160008201527f76652070617573657220726f6c6520746f20756e706175736500000000000000602082015250565b7f4f776e61626c653a206e6577206f776e657220697320746865207a65726f206160008201527f6464726573730000000000000000000000000000000000000000000000000000602082015250565b7f45524332303a20617070726f766520746f20746865207a65726f20616464726560008201527f7373000000000000000000000000000000000000000000000000000000000000602082015250565b7f6e6f204554482073656e74000000000000000000000000000000000000000000600082015250565b7f45524332303a207472616e7366657220616d6f756e742065786365656473206260008201527f616c616e63650000000000000000000000000000000000000000000000000000602082015250565b7f5061757361626c653a2070617573656400000000000000000000000000000000600082015250565b7f4e6f207265666c656374696f6e20617661696c61626c6520746f20626520636c60008201527f61696d6564000000000000000000000000000000000000000000000000000000602082015250565b7f45524332303a207472616e7366657220616d6f756e742065786365656473206160008201527f6c6c6f77616e6365000000000000000000000000000000000000000000000000602082015250565b7f4f776e61626c653a2063616c6c6572206973206e6f7420746865206f776e6572600082015250565b7f45524332305072657365744d696e7465725061757365723a206d75737420686160008201527f7665206d696e74657220726f6c6520746f206d696e7400000000000000000000602082015250565b7f45524332303a206275726e20616d6f756e74206578636565647320616c6c6f7760008201527f616e636500000000000000000000000000000000000000000000000000000000602082015250565b7f45524332303a206275726e2066726f6d20746865207a65726f2061646472657360008201527f7300000000000000000000000000000000000000000000000000000000000000602082015250565b7f45524332303a207472616e736665722066726f6d20746865207a65726f20616460008201527f6472657373000000000000000000000000000000000000000000000000000000602082015250565b7f45524332303a20617070726f76652066726f6d20746865207a65726f2061646460008201527f7265737300000000000000000000000000000000000000000000000000000000602082015250565b7f45524332305072657365744d696e7465725061757365723a206d75737420686160008201527f76652070617573657220726f6c6520746f207061757365000000000000000000602082015250565b7f416363657373436f6e74726f6c3a206163636f756e7420000000000000000000600082015250565b7f45524332303a2064656372656173656420616c6c6f77616e63652062656c6f7760008201527f207a65726f000000000000000000000000000000000000000000000000000000602082015250565b7f206973206d697373696e6720726f6c6520000000000000000000000000000000600082015250565b7f416363657373436f6e74726f6c3a2063616e206f6e6c792072656e6f756e636560008201527f20726f6c657320666f722073656c660000000000000000000000000000000000602082015250565b7f45524332303a206d696e7420746f20746865207a65726f206164647265737300600082015250565b7f45524332305061757361626c653a20746f6b656e207472616e7366657220776860008201527f696c652070617573656400000000000000000000000000000000000000000000602082015250565b61451481613c9b565b811461451f57600080fd5b50565b61452b81613cb9565b811461453657600080fd5b50565b61454281613cc3565b811461454d57600080fd5b50565b61455981613d0f565b811461456457600080fd5b5056fea26469706673582212203cc1b99eebc770c7d9b0a97858b89dbe0995547e50fbfc291bec7d7ef279cedb64736f6c63430008010033",
  "immutableReferences": {},
  "source": "// SPDX-License-Identifier: MIT\npragma solidity ^0.8.0;\n// NOT needed with > 0.8.0 import '@openzeppelin/contracts/utils/math/SafeMath.sol';\nimport \"@openzeppelin/contracts/utils/math/Math.sol\";\nimport \"@openzeppelin/contracts/access/Ownable.sol\";\nimport \"@openzeppelin/contracts/token/ERC20/presets/ERC20PresetMinterPauser.sol\";\n\n\ncontract OATToken is ERC20PresetMinterPauser, Ownable {\n    \n    \n    string public _name = \"OAT Token\";\n    string public _symbol = \"OAT\";\n    uint8 public _decimals = 9;\n    uint256 internal _reflectionTenthPercent = 5;\n    uint256 internal _burnTenthPercent = 5 ;\n    uint256 internal _period = 1;\n    mapping(address => uint256) public poolClaimed;\n    uint256 public tokenValueWEI;\n    \n    constructor() ERC20PresetMinterPauser(_name, _symbol) {\n        \n        _mint(msg.sender, 10 ** 12 * (10 ** uint256(decimals())));\n    }\n    \n// getters and setters\n    function getBurnTenthPercent() external view returns (uint256){\n        return _burnTenthPercent;\n    }\n    function setBurnTenthPercent(uint256 burnTenthPercent) external onlyOwner {\n        _burnTenthPercent = burnTenthPercent;\n    }\n    function getReflectionTenthPercent() external view returns (uint256){\n        return _reflectionTenthPercent;\n    }\n    function setReflectionTenthPercent(uint256 reflectionTenthPercent) external onlyOwner {\n        _reflectionTenthPercent = reflectionTenthPercent;\n    }\n    function getPeriod() external view returns (uint256) {\n        return _period;\n    }\n    function setPeriod(uint256 q) external onlyOwner {\n        _period = q;\n    }\n    function getTotalReflection() public view returns(uint256){\n        return balanceOf(address(this));\n    }\n    function getUserReflection(address a) public view returns (uint256){\n        if ( poolClaimed[a] == _period ){\n            return 0;\n        }\n        return balanceOf(a) * getTotalReflection() / totalSupply(); // This is int divisions and rounds DOWN\n    }\n// claim reflections\n    function claimAllReflection(uint256 amt) public onlyOwner {\n        transferFrom( address(this), owner(), amt );\n    }\n    function claimReflection() external {\n        address a = _msgSender();\n        uint balance = getUserReflection(a);\n        require(balance > 0, \"No reflection available to be claimed\");\n        _transfer( address(this), a, balance );\n        poolClaimed[a] = _period;\n    }\n    \n    function setTokenValue(uint256 price) public onlyOwner {\n        tokenValueWEI = price;\n    }\n    \n    \n    function buy(uint256 _amt) public payable{\n        uint256 weiValue = _amt*tokenValueWEI;\n        require(msg.value>weiValue,'no ETH sent');\n        transfer(msg.sender,_amt);\n    }\n//overriden transfer\n/**\n* @dev See {IERC20-transfer}.\n*\n* Requirements:\n*\n* - recipient cannot be the zero address.\n* - the caller must have a balance of at least amount.\n*/\n    function transfer(address recipient, uint256 amount) public virtual override returns (bool) {\n        require(balanceOf(_msgSender()) >= amount, \"ERC20: transfer amount exceeds balance\");\n        uint256 burnAmt = 0;\n        uint256 reflectionAmt = 0;\n        if( owner() != _msgSender() && (_burnTenthPercent > 0 || _reflectionTenthPercent > 0) ){\n        unchecked {\n            burnAmt = Math.ceilDiv(amount * _burnTenthPercent,1000);\n        }\n        burn(burnAmt);\n        unchecked {\n        reflectionAmt = Math.ceilDiv(amount * _reflectionTenthPercent,1000);\n        }\n        _transfer(_msgSender(), address(this), reflectionAmt);\n        }\n        _transfer(_msgSender(), recipient, amount - burnAmt - reflectionAmt);\n        return true;\n    }\n}",
  "sourcePath": "/Users/ithihasreddy/Desktop/Escrow/contracts/OAT.sol",
  "compiler": {
    "name": "solc",
    "version": "0.8.1+commit.df193b15.Emscripten.clang"
  },
  "schemaVersion": "3.4.0",
  "updatedAt": "2021-10-22T18:51:33.518Z",
  "devdoc": {
    "kind": "dev",
    "methods": {
      "allowance(address,address)": {
        "details": "See {IERC20-allowance}."
      },
      "approve(address,uint256)": {
        "details": "See {IERC20-approve}. Requirements: - `spender` cannot be the zero address."
      },
      "balanceOf(address)": {
        "details": "See {IERC20-balanceOf}."
      },
      "burn(uint256)": {
        "details": "Destroys `amount` tokens from the caller. See {ERC20-_burn}."
      },
      "burnFrom(address,uint256)": {
        "details": "Destroys `amount` tokens from `account`, deducting from the caller's allowance. See {ERC20-_burn} and {ERC20-allowance}. Requirements: - the caller must have allowance for ``accounts``'s tokens of at least `amount`."
      },
      "decimals()": {
        "details": "Returns the number of decimals used to get its user representation. For example, if `decimals` equals `2`, a balance of `505` tokens should be displayed to a user as `5,05` (`505 / 10 ** 2`). Tokens usually opt for a value of 18, imitating the relationship between Ether and Wei. This is the value {ERC20} uses, unless this function is overridden; NOTE: This information is only used for _display_ purposes: it in no way affects any of the arithmetic of the contract, including {IERC20-balanceOf} and {IERC20-transfer}."
      },
      "decreaseAllowance(address,uint256)": {
        "details": "Atomically decreases the allowance granted to `spender` by the caller. This is an alternative to {approve} that can be used as a mitigation for problems described in {IERC20-approve}. Emits an {Approval} event indicating the updated allowance. Requirements: - `spender` cannot be the zero address. - `spender` must have allowance for the caller of at least `subtractedValue`."
      },
      "getRoleAdmin(bytes32)": {
        "details": "Returns the admin role that controls `role`. See {grantRole} and {revokeRole}. To change a role's admin, use {_setRoleAdmin}."
      },
      "getRoleMember(bytes32,uint256)": {
        "details": "Returns one of the accounts that have `role`. `index` must be a value between 0 and {getRoleMemberCount}, non-inclusive. Role bearers are not sorted in any particular way, and their ordering may change at any point. WARNING: When using {getRoleMember} and {getRoleMemberCount}, make sure you perform all queries on the same block. See the following https://forum.openzeppelin.com/t/iterating-over-elements-on-enumerableset-in-openzeppelin-contracts/2296[forum post] for more information."
      },
      "getRoleMemberCount(bytes32)": {
        "details": "Returns the number of accounts that have `role`. Can be used together with {getRoleMember} to enumerate all bearers of a role."
      },
      "grantRole(bytes32,address)": {
        "details": "Overload {grantRole} to track enumerable memberships"
      },
      "hasRole(bytes32,address)": {
        "details": "Returns `true` if `account` has been granted `role`."
      },
      "increaseAllowance(address,uint256)": {
        "details": "Atomically increases the allowance granted to `spender` by the caller. This is an alternative to {approve} that can be used as a mitigation for problems described in {IERC20-approve}. Emits an {Approval} event indicating the updated allowance. Requirements: - `spender` cannot be the zero address."
      },
      "mint(address,uint256)": {
        "details": "Creates `amount` new tokens for `to`. See {ERC20-_mint}. Requirements: - the caller must have the `MINTER_ROLE`."
      },
      "name()": {
        "details": "Returns the name of the token."
      },
      "owner()": {
        "details": "Returns the address of the current owner."
      },
      "pause()": {
        "details": "Pauses all token transfers. See {ERC20Pausable} and {Pausable-_pause}. Requirements: - the caller must have the `PAUSER_ROLE`."
      },
      "paused()": {
        "details": "Returns true if the contract is paused, and false otherwise."
      },
      "renounceOwnership()": {
        "details": "Leaves the contract without owner. It will not be possible to call `onlyOwner` functions anymore. Can only be called by the current owner. NOTE: Renouncing ownership will leave the contract without an owner, thereby removing any functionality that is only available to the owner."
      },
      "renounceRole(bytes32,address)": {
        "details": "Overload {renounceRole} to track enumerable memberships"
      },
      "revokeRole(bytes32,address)": {
        "details": "Overload {revokeRole} to track enumerable memberships"
      },
      "supportsInterface(bytes4)": {
        "details": "See {IERC165-supportsInterface}."
      },
      "symbol()": {
        "details": "Returns the symbol of the token, usually a shorter version of the name."
      },
      "totalSupply()": {
        "details": "See {IERC20-totalSupply}."
      },
      "transfer(address,uint256)": {
        "details": "See {IERC20-transfer}. Requirements: - recipient cannot be the zero address. - the caller must have a balance of at least amount."
      },
      "transferFrom(address,address,uint256)": {
        "details": "See {IERC20-transferFrom}. Emits an {Approval} event indicating the updated allowance. This is not required by the EIP. See the note at the beginning of {ERC20}. Requirements: - `sender` and `recipient` cannot be the zero address. - `sender` must have a balance of at least `amount`. - the caller must have allowance for ``sender``'s tokens of at least `amount`."
      },
      "transferOwnership(address)": {
        "details": "Transfers ownership of the contract to a new account (`newOwner`). Can only be called by the current owner."
      },
      "unpause()": {
        "details": "Unpauses all token transfers. See {ERC20Pausable} and {Pausable-_unpause}. Requirements: - the caller must have the `PAUSER_ROLE`."
      }
    },
    "version": 1
  },
  "userdoc": {
    "kind": "user",
    "methods": {},
    "version": 1
  }
}